:020000040800F2
:105000003004002045510008A5530008275300082C
:10501000A15300088D5100086157000800000000EE
:105020000000000000000000000000009D54000887
:105030009151000800000000A7530008895500089E
:105040005F5100085F5100085F5100085F51000880
:105050005F5100085F5100085F5100085F51000870
:105060005F5100085F5100085F5100085F51000860
:105070005F5100085F5100085F5100085F51000850
:105080005F5100085F5100085F5100085F51000840
:105090005F5100085F5100085F5100085F51000830
:1050A0005F5100085F5100085F5100085F51000820
:1050B0005F5100085F5100085F5100085F51000810
:1050C0005F5100085F5100085F5100085F51000800
:1050D0005F5100085F5100085F5100085F510008F0
:1050E0005F5100085F5100085F5100085F510008E0
:1050F0005F5100085F5100085F5100085F510008D0
:105100005F5100085F5100085F5100085F510008BF
:105110005F5100085F5100085F5100085F510008AF
:105120005F5100085F5100085F5100085F5100089F
:10513000DFF80CD000F018F8004800471D580008B0
:10514000300400200648804706480047FEE7FEE797
:10515000FEE7FEE7FEE7FEE7FEE7FEE7FEE7FEE727
:105160009155000831510008064C074D06E0E068F3
:1051700040F0010394E8070098471034AC42F6D39E
:10518000FFF7DAFF98580008B858000800BFFEE79C
:105190007047000030B5144800684FF47A72B0FBD5
:1051A000F2F1B1F1807F00D31DE021F07F40401E7D
:1051B0004FF0E022506150170F22002807DA130742
:1051C0001D0E0A4B00F00F04241F1D5503E01307AA
:1051D0001C0E074B1C5400BF00204FF0E0229061D2
:1051E0000720106100BF30BD0400002018ED00E072
:1051F00000E400E00349086000BF02490968002993
:10520000FBD17047000000202DE9F0410246002547
:105210000026002000230024002791F803C00CF092
:105220000F0591F803C00CF0100CBCF1000F03D077
:1052300091F802C04CEA050591F800C0BCF1000FDE
:1052400031D0146800202BE04FF0010C0CFA00F371
:10525000B1F800C00CEA03069E4220D183004FF053
:105260000F0C0CFA03F7BC4305FA03FC4CEA0404E8
:1052700091F803C0BCF1280F06D14FF0010C0CFAD5
:1052800000FCC2F814C00AE091F803C0BCF1480F5A
:1052900005D14FF0010C0CFA00FCC2F810C0401C04
:1052A0000828D1D31460B1F800C0BCF1FF0F34DD81
:1052B000546800202EE000F1080C4FF0010808FAB5
:1052C0000CF3B1F800C00CEA03069E4221D1830022
:1052D0004FF00F0C0CFA03F7BC4305FA03FC4CEA41
:1052E000040491F803C0BCF1280F05D100F1080CAB
:1052F00008FA0CF8C2F8148091F803C0BCF1480F0A
:1053000007D100F1080C4FF0010808FA0CF8C2F8B8
:105310001080401C0828CED35460BDE8F081416164
:1053200070470161704700BFFEE7000008B501212A
:10533000102000F039F848208DF8030002208DF885
:1053400002000420ADF8000069460248FFF75CFF48
:1053500008BD00000010014008B50121102000F038
:1053600023F810208DF8030002208DF802000120A0
:10537000ADF8000069460948FFF746FF0220ADF886
:10538000000069460548FFF73FFF01210348FFF78A
:10539000C6FF02210148FFF7C2FF08BD001001400F
:1053A00000BFFEE77047704729B1064A9269024381
:1053B000044B9A6104E0034A92698243014B9A616B
:1053C000704700000010024030B500210022002488
:1053D00000232D4D6D6805F00C0121B1042905D085
:1053E000082923D105E0294D056022E0274D0560FD
:1053F0001FE0254D6D6805F47012234D6D6805F4AE
:105400008034022505EB92421CB9214D55430560BD
:105410000BE01D4D6D6805F400351DB11C4D554365
:10542000056002E0194D5543056002E0174D056027
:1054300000BF00BF144D6D6805F0F0010909154D5E
:105440006B5C0568DD4045600F4D6D6805F4E061FB
:10545000090A104D6B5C4568DD4085600A4D6D683A
:1054600005F46051C90A0B4D6B5C4568DD40C560B1
:10547000054D6D6805F44041890B074D6B5CC568AF
:10548000B5FBF3F5056130BD0010024000127A0053
:1054900000093D001800002028000020704710B5CA
:1054A00000F002F810BD00000CB500200190009043
:1054B0003348006840F480303149086000BF30480C
:1054C000006800F4003000900198401C01900098A2
:1054D00018B90198B0F5A06FF1D12948006800F41F
:1054E000003010B10120009001E0002000900098F1
:1054F000012843D12348006840F01000214908608A
:105500000846006820F0030008600846006840F084
:10551000020008601A484068194948600846406817
:1055200048600846406840F480604860084640682B
:1055300020F47C1048600846406840F4E810486059
:105540000846006840F08070086000BF0C480068A2
:1055500000F000700028F9D00948406820F00300EE
:10556000074948600846406840F00200486000BFB4
:105570000348406800F00C000828F9D10CBD000079
:10558000001002400020024010B500F031F810BDBC
:1055900010B51248006840F0010010490860084644
:1055A00040680F4908400D494860084600680D49A9
:1055B00008400A4908600846006820F48020086016
:1055C0000846406820F4FE0048604FF41F008860E1
:1055D000FFF765FF04480549086010BD0010024050
:1055E0000000FFF8FFFFF6FE0050000808ED00E0A5
:1055F0000448006820B103480068401E0149086063
:10560000704700000000002021B1828942F400525E
:10561000828104E082894DF6FF731A4082817047CF
:1056200008B501210420FFF7BFFE4FF40070ADF86C
:10563000000003208DF8020018208DF80300694651
:105640000748FFF7E1FD4FF48060ADF8000004204B
:105650008DF8030069460248FFF7D6FD08BD00003B
:105660000008014002460020B1F5007F00D100BFD4
:1056700013880B400BB1012000E0002070470000B0
:105680002DE9F04786B005460E460024A24600BF2D
:10569000A1460027B08900B100BF2F462C8A4CF6E6
:1056A000FF700440F08804432C82AC894EF6F3105E
:1056B0000440B08831890843718908430443AC81B0
:1056C000AC8A4FF6FF400440B0890443AC8201A885
:1056D000FFF77AFE1F48874202D1DDF810A001E0F3
:1056E000DDF80CA0A88900F4004040B10AEBCA0024
:1056F00000EB0A1031684900B0FBF1F807E00AEB53
:10570000CA0000EB0A1031688900B0FBF1F8642090
:10571000B8FBF0F004012009642101FB1089A8897D
:1057200000F4004040B1322000EBC900B0FBF1F0C2
:1057300000F00700044308E0322000EB0910642168
:10574000B0FBF1F000F00F0004432C8106B0BDE87F
:10575000F087000000380140C1F3080282807047E2
:1057600000BFFEE71FB501218803FFF71DFEFFF70D
:1057700057FF4FF4E13000900020ADF80400ADF881
:105780000600ADF808000C20ADF80A000020ADF8C6
:105790000C0069460348FFF773FF01210148FFF73A
:1057A00033FF1FBD00380140014A024900F013B821
:1057B000F95700082C00002002E008C8121F08C199
:1057C000002AFAD170477047002001E001C1121F82
:1057D000002AFBD170472DE9F04116460F460446DA
:1057E000002503E03946B047641C6D1C2078002872
:1057F000F8D12846BDE8F08170B504460D46E1B207
:105800000548FFF7A9FF00BF80210348FFF72AFFE3
:105810000028F9D0204670BD00380140FFF7BAFCDF
:10582000FFF7A0FFFFF798FDFFF780FD1BE00121C8
:105830000D48FFF774FD02210B48FFF772FDFA20B7
:10584000FFF7D8FC01210848FFF76BFD022106484D
:10585000FFF765FDFA20FFF7CDFC04A0FFF7A4FFDA
:105860000AA0FFF7A1FFE2E70010014053544D33B7
:10587000324631303352435436BACBD0C4B0E5B49B
:10588000AEBFDAB2E2CAD40D0A000000B7B4BFCD91
:10589000BFC6BCBC0D0A0000B858000800000020BC
:1058A00030000000B8570008E85800083000002019
:1058B00000040000C85700080000000000A24A04CD
:1058C00000000000000000000102030406070809B0
:1058D0000000000001020304010203040607080996
:0858E0000204060800000000AC
:04000005080051316D
:00000001FF
