:020000040800F2
:10000000F8190020E5070008ED070008EF070008D1
:10001000F1070008F3070008F507000800000000DA
:10002000000000000000000000000000F7070008CA
:10003000F907000800000000FB070008FD070008A2
:10004000FF070008FF070008FF070008FF07000878
:10005000FF070008FF070008FF070008FF07000868
:10006000FF070008FF070008FF070008FF07000858
:10007000FF070008FF070008FF070008FF07000848
:10008000FF070008FF070008FF07000871040008C9
:1000900075040008FF070008FF070008FF070008B5
:1000A000FF070008FF070008FF070008FF07000818
:1000B000FF070008FF070008FF070008FF07000808
:1000C000FF070008FF070008FF070008FF070008F8
:1000D000FF070008FF070008FF070008FF070008E8
:1000E000FF070008FF07000879040008FF07000861
:1000F000FF070008FF070008FF070008FF070008C8
:10010000FF070008FF070008FF070008FF070008B7
:10011000FF070008FF070008FF070008FF070008A7
:10012000FF070008FF070008FF070008FF07000897
:1001300000F002F800F05AF80AA090E8000C82449F
:100140008344AAF10107DA4501D100F04FF8AFF27C
:10015000090EBAE80F0013F0010F18BFFB1A43F0A5
:1001600001031847B8370000D83700000A444FF0A1
:10017000000C10F8013B13F0070408BF10F8014B06
:100180001D1108BF10F8015B641E05D010F8016B4B
:10019000641E01F8016BF9D113F0080F1EBF10F8AF
:1001A000014BAD1C0C1B09D16D1E58BF01F801CBD2
:1001B000FAD505E014F8016B01F8016B6D1EF9D555
:1001C0009142D6D37047000000230024002500266A
:1001D000103A28BF78C1FBD8520728BF30C148BFAA
:1001E0000B6070471FB51FBD10B510BD03F0D8FAE6
:1001F0001146FFF7F7FF00F0E1F803F0F6FA03B459
:10020000FFF7F2FF03BC03F0FDFA000010B504464F
:100210000121042000F09DFD7F49086824B14FF6BC
:10022000FD721040086010BD80B240F0020008600E
:100230007A48016821F47F210160016841F44C3162
:10024000016077490020C1F8B00110BD754910B5B3
:100250000868401C02D14868401C0BD00A684FF463
:100260008050B2F1005F04D34968CA0701D08847C3
:10027000002010BD4FF4005010BD08B54FF47A7146
:1002800048430090411E009101D30846FAE708BD9B
:100290004FF4A0414FF0006000F0F8FA00F052FA7D
:1002A00000F028FA0025604C01264FF47577C4F859
:1002B0009451142000F074FAC4F89461384600F0A8
:1002C0006FFAF4E710B54FF4FA74204600F068FABC
:1002D0000020FFF79BFF204600F062FA0120FFF7A5
:1002E00095FF02F078F802F05FF8BDE8104001F0E9
:1002F0000BBC70B54D4C216800224FF4FA754FF4D9
:100300008070B1F5806F34D009DC002951D001290B
:1003100042D0814224D0B1F5007F0CD126E0B1F566
:10032000006F2CD0B1F5805F2CD0B1F5005F2CD0E0
:10033000B1F5804F20D020603DA002F0B6FF002034
:10034000FFF764FF284600F02BFA0120FFF75EFF5D
:1003500002F041F802F028F8BDE8704001F0D4BB8B
:100360002260BDE8704032A002F09FBF226032A040
:100370000DE0226032A00AE0226033A007E0226094
:1003800033A004E0226034A001E0226034A002F037
:100390008CFFBDE8704095E7226033A002F085FF36
:1003A0000020FFF733FF284600F0FAF9FFF74EFF71
:1003B000206070BD1D4901204860704700F0C2F9FF
:1003C00000F00CFA4FF4FA7000F0EAF90020FFF7A1
:1003D0001DFF4FF4967000F0E3F90120FFF716FFC0
:1003E00001F0F9FF01F0E0FF01F08EFB00250F4C5A
:1003F0000126642000F0D4F9A068002808DD6168B7
:100400000A2905D1401EA060002801DC2660A560F5
:10041000FFF76FFFEDE70000405C0040040801407B
:10042000000021420050000800002342000000208C
:10043000524541445900000053554343455353002E
:10044000554E4B4F574E00004C415247450000005F
:10045000464C415348000000455252415050000064
:100460004E4F41505000000041505052554E000038
:1004700001F0FDBB02F0E6B9704700000CB50022A8
:100480004C4800920192016841F4803101604FF4C0
:10049000A063016801F4003101910099491C0091A9
:1004A000019911B900999942F3D10168890333D5B3
:1004B0000121019140490A6842F010020A600A686D
:1004C00022F003020A600A6842F002020A604168F0
:1004D000416041684160416841F480614160416828
:1004E00021F47C114160416841F4E81141600168E8
:1004F00041F08071016001688901FCD5416821F0FB
:1005000003014160416841F0020141604168C1F36B
:1005100081010229FAD10CBD01920CBD254810B50C
:10052000016841F0010101604168244A11404160C5
:100530000168234A11400160016821F480210160B3
:10054000416821F4FE0141604FF41F018160FFF713
:1005500095FF1C494FF00060086010BD154A10B5AA
:100560005068194B10F00C01184803D0042901D031
:10057000082901D0036012E05168536801F470113A
:100580004FF0020413F4803F04EB914102D0536812
:100590009B0301D50E4B00E00B4B594301605168A2
:1005A0000A4AC1F30311121D515C0268CA4002607D
:1005B00010BD000000100240002002400000FFF8C3
:1005C000FFFFF6FE08ED00E000127A000C000020AC
:1005D00000093D00008870472DE9F04116460F469E
:1005E0000546002407E037F81410284600F089FD7E
:1005F000641CA4B2AD1CB442F5D3BDE8F0813B4B02
:1006000010B5984209D30020034603E021F81030CA
:10061000401C80B29042F9D310BD002305E030F8B1
:10062000024B21F813405B1C9BB29342F7D310BDE1
:100630002DE9F05F15468846824600F066FCAAF177
:100640000060C0F34906C70AC6F58064A54200D819
:100650002C46DFF89CB04FF0006000EBC7208146CD
:100660004FF480622249FFF7CAFF00204FF6FF7265
:1006700006E033183BF81310914203D1401C80B2BE
:10068000A042F6D3A04223D2484600F078FC0020D6
:10069000594606E038F810208319401C21F8132031
:1006A00080B2A042F6D348464FF480621049FFF76B
:1006B00093FFA54210D0281B08EB4408A244002653
:1006C00085B24FF480647F1CA542C4D82C46C2E793
:1006D000224641465046EAE7BDE8F05F00F021BC03
:1006E00013B5012201A9FFF7A3FF1CBD00A0070855
:1006F0001402002038B50121482000F02AFB2024F4
:10070000ADF8004010208DF8030003200B4D8DF84C
:1007100002006946284600F034F92021284600F0FE
:100720009AF9ADF80040064C6946204600F029F9D8
:100730002021204600F08FF938BD0000000C014058
:100740000018014010B56FF0040000F0B0F8204828
:1007500020490068B0FBF1F01F49C0B200EB400235
:100760000870C2EBC0104FF6FF7202EAC00048806A
:1007700010BD1949097848434FF0E0214861002332
:100780008B61086940F0010008610869C20701D067
:10079000C003FAD5086920F0010008618B61704739
:1007A0000D49498848434FF0E021486100238B619F
:1007B000086940F0010008610869C20701D0C00360
:1007C000FAD5086920F0010008618B6170470000CC
:1007D0000C00002000127A00200000204FF4A060DE
:1007E00000F020B80948804709480047FEE7FEE7C7
:1007F000FEE7FEE7FEE7FEE7FEE7FEE7FEE7FEE7D1
:1008000004480549054A064B704700001D050008CD
:1008100031010008F8130020F8190020F815002015
:10082000F81500202849084328490860704730B56A
:100830000F23C27801780125F2B1244A126801F130
:10084000E02102F4E062C2F5E062120AC2F104049F
:10085000D3404278A24084781C401443220181F89E
:100860000024007800F01F018D404009800000F155
:10087000E020C0F8005130BD01F01F00854048095C
:10088000800000F1E020C0F8805130BD104A1140D6
:1008900001430E48001F016070470C4A121D0029D9
:1008A000116801D0014300E08143116070474FF0AF
:1008B000E0210428086903D020F004000861704793
:1008C00040F00400FAE700000000FA050CED00E03B
:1008D00080FFFF1F8F4910B5884206D101210420F7
:1008E00000F049FA002104203BE08B49884206D100
:1008F0000121082000F03FFA0021082031E087495B
:10090000884206D10121102000F035FA0021102084
:1009100027E08349884206D10121202000F02BFAEC
:10092000002120201DE07F49884206D1012140207E
:1009300000F021FA0021402013E07B49884206D1D3
:100940000121802000F017FA0021802009E077497A
:1009500088420AD184150121204600F00CFA0021BA
:100960002046BDE8104000F006BA10BD10B50121C8
:10097000084600F000FA0021BDE81040012000F018
:10098000FAB9F0B5CC78002204F00F03E40601D5E3
:100990008C7823430C784FF00F0C14F0FF0F4FF0BE
:1009A000010E1BD005680E880EFA02F42640A642FE
:1009B00010D196000CFA06F725EA070703FA06F5A8
:1009C000CE783D43282E02D0482E02D002E044616A
:1009D00000E00461521C082AE5D305600A88FF2A5A
:1009E0001CD94468002202F108060EFA06F50E88AA
:1009F0002E40AE420ED196000CFA06F7BC4303FA25
:100A000006F7CE783C43282E00D14561CE78482E9B
:100A100000D10561521C082AE5D34460F0BD4FF6B1
:100A2000FF710180022181700421C170704702466C
:100A3000002092680A4200D001207047806880B28E
:100A4000704702460020D2680A4200D00120704759
:100A5000C06880B2704701617047416170470AB158
:100A60000161704741617047C160704741F4803255
:100A70008261816182618169806970472C4B10B508
:100A80001A684FF68074224042EA0010084318604A
:100A900010BD2849C8617047F0B5254C002801DA1F
:100AA000E36900E06368450D2E0185B2C0F301578C
:100AB000B540C0F30342032F05D0C6020AD5032672
:100AC0009640B34307E023F07062636823F07063DD
:100AD000636002E0AB4343F0706201B12A43002837
:100AE00001DAE261F0BD6260F0BD10B58A0721F065
:100AF00003040F49120F21440F238C6893409C4339
:100B00008C608B68904003438B6010BD0949C1F82D
:100B1000DC00704700080140000C0140001001405B
:100B20000014014000180140001C01400020014059
:100B30000000014000002042A548016841F0010189
:100B400001604168A34A114041600168A24A114016
:100B50000160016821F480210160416821F4FE01F7
:100B600041604FF41F018160704799490A6822F47F
:100B700080320A600A6822F480220A60B0F5803F61
:100B800007D0B0F5802F03D1086840F4A02008609A
:100B90007047086840F48030F9E70346002059099F
:100BA0008B4A01290AD002290AD0516A03F01F0298
:100BB000012393400B4200D0012070471168F5E7F4
:100BC000116AF3E718B500204FF4A06400903120BB
:100BD000FFF7E3FF0099491C0091A14201D00028D2
:100BE000F5D03120FFF7D9FF002800D0012018BD33
:100BF000774A116821F0F80141EAC000106070479F
:100C0000764908607047724B5A68084322F47C1298
:100C10001043586070477149086670476C4A5168C4
:100C200021F003010143516070476948406800F0BA
:100C30000C007047664A516821F0F0010143516091
:100C40007047634A516821F4E06101435160704785
:100C50005F4A516821F4605141EAC000506070471A
:100C60005B4A0029517A01D0014300E0814351726F
:100C700070475A49C1F8D8007047554A516821F465
:100C800040410143516070475149002281F82020C2
:100C900081F82020012802D0042802D1052081F803
:100CA000200070474E490860704749490A6A02436C
:100CB0000A6270474A4944390860704730B5444A6F
:100CC0005168484B11F00C0103D0042901D00829C8
:100CD00001D0036012E05168536801F470114FF0C5
:100CE000020413F4803F04EB914102D053689B034C
:100CF00001D53D4B00E03B4B5943016051680F2348
:100D000003EA1111394B5C5C0168E14041605468B1
:100D1000072505EA14241C5D21FA04F48460546854
:100D200005EAD4241B5DD940C1605268032303EA5D
:100D300092322E4B1B1F9A5CB1FBF2F1016130BD68
:100D4000234A0029516901D0014300E081435161E8
:100D500070471F4A0029916901D0014300E0814397
:100D6000916170471A4A0029D16901D0014300E01E
:100D70008143D1617047164A0029D16801D00143EF
:100D800000E08143D1607047114A0029116901D008
:100D9000014300E081431161704711494039086007
:100DA00070470E49C86470470949C87170470848C0
:100DB000416A41F0807141627047054A0146002056
:100DC00092680A4200D0012070470149887270473A
:100DD000001002400000FFF8FFFFF6FE0000424254
:100DE0008004424200127A0000093D0028000020E1
:100DF000374900200860091D0860091D0860091DA9
:100E000008603349334814310860704730B5304AC0
:100E10008379016853B313688B431360111D0B680A
:100E20000468A3430B60017911440B6804682343F1
:100E30000B60274B083319680468A14319601C1D17
:100E400021680568A94321604179102905D0114422
:100E50000A68006802430A6030BD196802681143DD
:100E60001960216800680143216030BD0079104499
:100E700002688A43026030BD0021016001710C22CA
:100E8000427181717047124910310A6802430A6049
:100E9000704701460E4A0020143212680A4200D000
:100EA000012070470A49143108607047084A01461A
:100EB00000201268064B0A4014331B680B4202D014
:100EC000002A00D0012070470149143108607047A2
:100ED00000040140FFFF0F00FE4A116801F03801D5
:100EE000014311607047FB490A6822F008020A605A
:100EF0000A6802430A607047F6490A6822F0100245
:100F00000A600A6802430A607047F248F249416089
:100F1000F24941607047EF48EF494160EF49416055
:100F20007047EC48016941F0800101617047E94870
:100F3000016941F0800101617047E6490420CA68F7
:100F4000D20701D001207047CA68520701D502209C
:100F50007047C968C906FBD50320704700B5034632
:100F6000FFF7EBFF02E0FFF7E8FF5B1E012803D06D
:100F7000002B00D1052000BD002BF4D1FAE770B59D
:100F800005464FF430263046FFF7E8FF042811D11C
:100F9000D04C206940F0020020616561206940F07A
:100FA000400020613046FFF7D9FF216941F6FD720C
:100FB0001140216170BD30B54FF430252846FFF750
:100FC000CDFF042810D1C34C206940F004002061FB
:100FD000206940F0400020612846FFF7BFFF2169EB
:100FE00041F6FB721140216130BD00B50346FFF7A9
:100FF000A4FF02E0FFF7A1FF5B1E012803D0002B36
:1010000000D1052000BD002BF4D1FAE730B54FF434
:1010100030252846FFF7E9FF042810D1AD4C2069A0
:1010200040F004002061206940F040002061284623
:10103000FFF7DBFF216941F6FB721140216130BDF2
:10104000A4490020C969890700D50120704770B5FF
:10105000A525FFF7F5FF00B100254FF430263046F7
:10106000FFF77CFF042827D19A4C9B48A0609B483F
:10107000A060206940F020002061206940F040001D
:1010800020613046FFF76AFF41F6EF7604280ED163
:10109000206941F6DF7108402061206940F01000AE
:1010A00020618F4805804FF40030FFF757FF052877
:1010B00002D021693140216170BDF8B5064600209B
:1010C0004FF4003C00900D466046FFF747FF0428B0
:1010D00016D1804C206940F00100206135806046C7
:1010E000FFF73CFF41F6FE77042806D1B61C280C1A
:1010F000009630806046FFF731FF21693940216159
:10110000F8BDF0B506464FF400370D463846FFF7F8
:1011100025FF04280DD16F4C206940F001002061AB
:1011200035803846FFF71AFF216941F6FE721140FB
:101130002161F0BDF0B506464FF400370D46384644
:10114000FFF70CFF042813D1624C6348A06063488A
:10115000A060206940F01000206135803846FFF71C
:10116000FDFE052804D0216941F6EF72114021618E
:10117000F0BD2DE9F041C043C7B2C0F30726C0F36C
:101180000745040E4FF400384046FFF7E7FE0428F9
:101190003CD1DFF840C15049CCF808104F49CCF899
:1011A0000810DCF8101041F01001CCF81010FF2FDF
:1011B00007D04B48083007804046FFF7CFFE042891
:1011C0001BD1FF2E07D046480A3006804046FFF765
:1011D000C5FE042811D1FF2D07D041480C300580F1
:1011E0004046FFF7BBFE042807D1FF2C07D03C4840
:1011F0000E3004804046FFF7B1FE052806D0DCF82B
:10120000101041F6EF721140CCF81010BDE8F081DB
:1012100070B505464FF430263046FFF79FFE042890
:1012200018D12C4C2C48A0602C48A060206940F0BC
:1012300020002061206940F0400020613046FFF727
:101240008DFE41F6DF71042805D0052802D0226901
:101250000A40226170BD206908402061206940F089
:10126000100020611E480DB1002100E0A521018081
:101270003046FFF773FE0528ECD0216941F6EF7286
:101280001140216170BDF0B5124C07461248164658
:101290000D46A0601148A0604FF4003C6046FFF787
:1012A0005DFE042814D1206940F010002061354310
:1012B0000B493D43891C45F0F80008806046FFF764
:1012C0004DFE052804D0216941F6EF7211402161DD
:1012D000F0BD00000020024023016745AB89EFCD3F
:1012E00000F8FF1F1C48C069800870471A48006A50
:1012F0007047194900200968890600D50120704708
:10130000154A0029116901D0014300E081431161B0
:10131000704701460020104A012903D0D2680A42D2
:1013200003D17047D169C907FBD0012070470A4932
:10133000C860704708490420CA68D20701D001205C
:101340007047CA68520701D502207047C968C906AC
:10135000FBD50320704700000020024010B5F74C79
:1013600030B1F74800680068804720680A3010BD37
:10137000216801200882002010BDF04810B50068E7
:10138000F04AC1785278914203D882780AB98288AB
:101390000AB1022010BD8172E948006840688047A8
:1013A000002010BD10B5E54C30B1E54800688068FC
:1013B000804720680C3010BD216801200882002081
:1013C00010BD10B5DD4CE04A20681268C178926902
:1013D0004079904721688A7A22B118B9087908B90A
:1013E000887808B1022010BDD5480068C0688047E1
:1013F00020684179C172C1780173002010BDCF49C6
:1014000010B5096860B1D148002202800A785306FD
:101410000AD002F07F02012A18D0022A18D001E077
:1014200002200882002010BD497A8A0603D502787E
:1014300042F002020270490603D5017801F0FE0174
:1014400002E0017841F00101017011E0BF4810BDD8
:1014500049790A070B06BE4901EB9261D1F8001CDD
:1014600002D5C1F3011101E0C1F301310129E8D036
:10147000B348006800698047E8E72DE9F041AF48CC
:101480000068017811F07F0102D0022905D05FE0E9
:10149000417A01F0DF01417249E04188F1BB0179F5
:1014A000E1BB4179AA4D21F080040A0605EB8402D4
:1014B000A44BD2F8002C03D5C2F30112120102E0B2
:1014C000C2F3013212031E782346A64240D92AB342
:1014D000807A18B308064FEA84000ED52844D0F865
:1014E000000CC0F3011001281DD1184600F074FD56
:1014F0002046302100F06BFC15E04619D6F8000CB0
:10150000C0F3013001280ED14BF68F7794B1184605
:1015100000F051FDD6F8000C384000E018E080F4EF
:101520004050C6F8000C864800684069804700209B
:10153000BDE8F081874890F82C10002000F0BFFD36
:10154000D5F8000C384080F44050C5F8000CEAE7AC
:101550000220EDE770B579487D4D0268517921F0A0
:10156000800005EB80000B06D0F8003C21F08004E1
:1015700003D5C3F301131B0102E0C3F301331B03C3
:10158000704D2D78A5420ED9548864B95BB1927A1A
:101590004AB10906D0F8001C07D548F6BF721140C1
:1015A00081F0100106E0022070BD4BF68F721140F1
:1015B00081F48051C0F8001C614800688069804750
:1015C000002070BD5D4810B50068417A41F02001EF
:1015D00041725B480068C0698047002010BD574ACF
:1015E00013685A8A10B10868104470478888801AB6
:1015F0001882002070472DE9F047DFF84091564FE0
:101600004FF03008D9F8001001F11005088A0E7A61
:1016100008B9042E04D0AC88A04216D8042615E0E0
:101620004A48801E0178012903D0072610203880FF
:101630002BE04A4A00211268494B120403EBD232D4
:101640005160A7F8008001701FE00226844200D993
:101650000446A968204688478246002000F0FAFC2C
:1016600001462246504600F045FB2146002000F08E
:1016700008FD28883B49001B288068882044688032
:10168000A7F800804FF440500880D9F80000067297
:10169000BDE8F08770B5294D296808784C78420676
:1016A00006D000F07F0001282BD002282ED038E091
:1016B000092C06D0052C07D0032C0ED0012C17D0F6
:1016C0002FE0FFF75AFE2BE0C8787F2831D88878C2
:1016D00078BB888868BB887A2AE0C878012820D13E
:1016E0008888F0B9487A80061BD5FFF76BFF17E0B2
:1016F000C878012815D1888898B9487A80060AD414
:101700000FE00B2C0DD1FFF75CFE09E0012C02D09D
:10171000032C03D005E0FFF7B0FE01E0FFF71AFF4E
:1017200058B109492046096849698847032802D009
:1017300018B1082024E0092022E015E04000002034
:1017400048000020B0010020440000203A000020A2
:10175000005000405801002050000020505C004024
:10176000006000404E000020DC4A06200021126884
:10177000DB4B120403EBD2325160DA4A3021118084
:101780002968087270BDF8B5D74CD84D0926206875
:10179000002729684278062A05D0AAB1082A4ED027
:1017A0000A2A52D06EE0027852066BD18078012866
:1017B00004D0022804D0032804D063E0C96959E0AA
:1017C000096A57E0496A55E04288BABBC288022AD2
:1017D00058D1027992BB0278530601D1838833B184
:1017E00002F07F02012A05D0022A0DD04AE0AFF2B2
:1017F000F1313FE08A69407900219047F0B92068D3
:10180000807A0028F3D13DE0417901F00F0001F02A
:1018100070020B06B64901EB8001D1F8001C03D51C
:10182000C1F30111090102E0C1F301310903B14B18
:101830001B78834226D90AB90029D8D122E0007842
:1018400040061FD1AFF2EB4114E0027802F07F02B4
:10185000012A17D1827AAAB142889AB902798AB943
:10186000C288012A0ED18A6940790021904748B97F
:10187000AFF2CF4131B120684782816100208847B3
:10188000002006E029682068096940788847032815
:1018900013D021680A8AA2F57F43FF3B0BD00228B0
:1018A0000ED06AB10878000625D5C888009082421B
:1018B0000AD9088218E00E72F8BD20680672F8BDD9
:1018C0004FF008000872F8BD0ED228688A4B90F8D5
:1018D0002C00824201D21F7006E0B2FBF0F400FB44
:1018E000142008B901201870286890F82C0088820C
:1018F000BDE8F8407FE603200872804900030880B5
:10190000F8BD7F4810B590F82C10002000F0D7FBF0
:1019100075480068007A082802D0092809D006E036
:1019200076494FF4805008806E49102008800020CE
:1019300010BD012010BD70B5684800686A4D0004F4
:10194000C10B67480144098989B200EB410428684A
:10195000017A09290FD02178017061784170A0883F
:1019600000F016FD29684880208900F011FD2968E3
:101970008880A089C880286801210172C08820B1B0
:10198000FFF701FFBDE87040BBE7FFF783FEF9E713
:10199000F0B55849564E48F68F770D78002109E08A
:1019A000CBB206EB8302D2F8004C3C401C43C2F899
:1019B000004C491CA942F3D3484940F08000091F5C
:1019C0000860F0BD10B5484C2168087A022804D0A0
:1019D000042802D0062805D018E0FFF70CFE206886
:1019E000007A14E0487805280CD10878400609D11F
:1019F000FEF7E0FC2068C078FFF7CAFF41480068A6
:101A0000006A80473948006880688047082021685C
:101A10000872BDE8104074E710B5334C2068007AB6
:101A2000032804D0052802D0072805D008E000F0DC
:101A30000EF82068007A04E02C480068C0688047EF
:101A4000082021680872BDE810405AE770472DE968
:101A5000F047254EDFF88C803027346834F8100FBB
:101A6000A168A9B100B3A588854200D905462846DA
:101A7000884781462088401B2080608828446080F9
:101A8000002000F0F2FA01462A46484600F044F9E8
:101A9000208848B119494FF4405008800021084679
:101AA00000F0EFFAA8F800702088A188884201D3DE
:101AB000032001E018B1052031680872E8E53168BB
:101AC00006200872054900200968054A090402EB4E
:101AD000D1314860A8F80070DAE50000505C0040A1
:101AE0000060004050000020400000204400002022
:101AF00000500040B0010020380000204E000020BF
:101B000058010020480000200649054802220860CC
:101B10000272064A0448C1E9010200680047000059
:101B2000140A00204000002058010020B4010020C9
:101B30002DE9F05F4BF68F7848F6BF79664C674D1C
:101B400040F68F7BDFF898A1664E2EE047F6FF70D7
:101B50001060088810F00F008AF800002ED006EB05
:101B60008001D1F8002C97B23A040BD5D1F8002CA3
:101B700002EA0B02C1F8002C5B4901EB800050F82F
:101B8000040C8047380610D59AF8000006EB800157
:101B9000D1F8002C48F60F731A40C1F8002C5349B5
:101BA00001EB800050F8040C80474B4A4432106827
:101BB0004F4908800004C9D4BDE8F09F2068C0F3F5
:101BC0000130000328802068C0F301100001688004
:101BD000206800EA080080F400502060206800EAD5
:101BE000090080F0200020600888C00616D4216813
:101BF00048F60F700140216019E0890401D580F496
:101C0000005020602068698800EA0900CA062BD4C9
:101C1000890601D580F020002060CDE7206880B2E1
:101C2000010607D5206848F60F7108402060FFF7CD
:101C3000C9FE10E0010506D5206800EA0B0020600F
:101C4000FFF779FE07E00004AFD5206800EA0B003B
:101C50002060FFF7E1FE2068298800EA0800CA0436
:101C6000CBD580F48050C8E780F01000D0E72DE994
:101C7000F041194C1A4E1B4F44341D4D25E047F6D8
:101C8000FF702060288800F00F0107EB81003170A1
:101C9000D0F8002C92B2130408D5D0F8002C40F6EE
:101CA0008F731A40C0F8002C0F4809E012060CD5BB
:101CB000D0F8002C48F60F731A40C0F8002C0B48DF
:101CC00000EB810050F8040C804720682880000455
:101CD000D5D4BDE8F0810000005C00404E0000203B
:101CE0003C0000200050004024010020080100209A
:101CF000400100200F4B10B5521C520803EB41016C
:101D000009D010F8013B521E10F8014B43EA04239E
:101D100021F8043BF5D110BD064B521C520803EBD1
:101D2000410105D031F8043B20F8023B521EF9D1A5
:101D30007047000000600040FC4908607047FB48A5
:101D4000006880B27047F949091D08607047F7487C
:101D5000001D006880B27047F4480830006880B207
:101D60007047F2490C3108607047F0480C30006849
:101D700080B27047ED4920F00700103108607047CD
:101D8000EA481030006880B27047E94A02EB8000F0
:101D9000C0F8001C7047E64901EB8000D0F8000C49
:101DA00080B270478200E2481044D0F8002C48F618
:101DB0008F131A400A43C0F8002C7047DC4901EB2E
:101DC0008000D0F8000CC0F3412040027047820030
:101DD000D7480244D2F8000C48F6BF731840CB062F
:101DE00001D580F01000890601D580F02000C2F8EE
:101DF000000C70478200CE480244D2F8000C4BF62B
:101E00008F731840CB0401D580F48050890401D52C
:101E100080F40050C2F8000C704700B50B46024633
:101E2000FFF7B9FF9100C24A012B0A4406D0022BEA
:101E300003D120F01000C2F8000C00BD20F4805047
:101E4000F9E7BB4901EB8000D0F8000CC0F30110AA
:101E500000017047B64901EB8000D0F8000CC0F3D8
:101E60000130000370478100B1480844D0F8001CDD
:101E700048F6BF72114081F03001C0F8001C704775
:101E80008100AB480844D0F8001C4BF68F7211401B
:101E900081F44051C0F8001C70478100A4480844F8
:101EA000D0F8001C48F68F7241F480711140C0F8E0
:101EB000001C704781009E480844D0F8001C48F67A
:101EC0008F621140C0F8001C704781009848084498
:101ED000D0F8001C48F68F621140C0F8001C704713
:101EE000810093480844D0F8001C48F68F7241F4F2
:101EF00080711140C0F8001C704781008C48084474
:101F0000D0F8001C48F68F7241F480711140C0F87F
:101F1000001C7047810086480844D0F8001C48F631
:101F20008F621140C0F8001C7047814901EB8000AE
:101F3000D0F8000CC0F30110012800D00020704739
:101F40007B4901EB8000D0F8000CC0F30130012880
:101F500000D000207047810075480844D0F8001C6C
:101F600040F68F721140C0F8001C70478100704825
:101F70000844D0F8001C48F60F721140C0F8001C4D
:101F8000704781006A480844D0F8001C48F68F72F8
:101F9000114041F48041C0F8001C70478100644842
:101FA0000844D0F8001C48F68F72114041F04001FF
:101FB000C0F8001C704781005D480844D0F8001C40
:101FC000490408D5D0F8001C48F68F72114041F43E
:101FD0008041C0F8001C7047810055480844D0F883
:101FE000001C490608D5D0F8001C48F68F72114035
:101FF00041F04001C0F8001C704782004C4810447A
:10200000D0F8002C48F68F731A400A43C0F8002C11
:102010007047474901EB8000D0F8000C00F00F003A
:102020007047424A21F001011032126892B202EB6D
:10203000C000404A42F8101070473C4A21F00101AC
:102040001032126892B202EBC0003A4A02EB400032
:102050008160704735491031096889B201EBC000D1
:10206000344931F8100080B27047304910310968A6
:1020700089B201EBC0002F4901EB4000008980B21A
:1020800070472A4A1032126892B202EBC000294A05
:1020900002EB4000416070473E2909D94A09C90650
:1020A00001D1521E92B24FF4004141EA822104E074
:1020B0004A08C90700D0521C9102016070471B4AB0
:1020C0001032126892B202EBC0001A4A0C3202EBD4
:1020D00040023E2909D94809C90601D1401E80B2F3
:1020E0004FF4004141EA802004E04808C90700D0CD
:1020F000401C8002106070470C491031096889B299
:1021000001EBC0000B4901EB40008088C0F30900DF
:10211000704706491031096889B201EBC0000549D2
:1021200001EB40008089C0F309007047405C00402B
:10213000005000400060004030B521F00104974994
:102140000B6822F001029BB203EBC0035D00944BCD
:10215000EC50096889B201EBC00003EB40008260DB
:1021600030BD8E4A21F00101126892B202EBC0002C
:102170008B4A42F81010D8E7884A21F00101126812
:1021800092B202EBC000864A02EB40008160CCE7CD
:102190008249096889B201EBC000814931F8100019
:1021A00080B2C2E77D49096889B201EBC0007C4971
:1021B00001EB4000008980B2B7E72DE9F043774F8B
:1021C000012912D002290ED1396889B201EBC00170
:1021D0004B0073490B445A603B689BB203EBC00051
:1021E00001EB4000C260BDE8F08339686C4B89B2F6
:1021F00001EBC0011B1D03EB410C530951085D1E8F
:102200004C1C4FF400493E2A07D91E465FEAC268BB
:1022100000D1AEB249EA862605E00E465FEAC278F2
:1022200000D02646B602CCF800603E68B6B206EB97
:10223000C0005B4E0C3606EB40003E2A05D9D106A5
:1022400000D1ABB249EA832103E0D20700D0214696
:1022500089020160C7E7514B01290AD0022907D141
:10226000196889B201EBC0004D4901EB40004260A2
:102270005BE7196889B201EBC0004949091D01EB10
:1022800040013E2A09D95009D20601D1401E80B230
:102290004FF4004242EA802004E05008D20700D008
:1022A000401C8002086040E73C4B01290AD002290B
:1022B00007D1196889B201EBC000394901EB400030
:1022C000C26032E7196889B201EBC00034490C31B1
:1022D00001EB40013E2A09D95009D20601D1401E26
:1022E00080B24FF4004242EA802004E05008D20756
:1022F00000D0401C8002086017E72849096889B2AD
:1023000001EBC000264901EB40008088C0F30900C2
:102310000BE72249096889B201EBC000204901EBB3
:1023200040008089C0F30900FFE61C490A6892B2A8
:1023300002EBC00253001A4A13449B8913F47C4FEA
:1023400001D00120F1E6096889B201EBC00002EB7F
:10235000400080888005F5D00220E6E6114B48F663
:102360008F7203EB8000012909D0022906D1D0F831
:10237000001C114041F48041C0F8001CD5E6D0F8A3
:10238000001C114041F04001F6E741EA0020CCE694
:10239000C1B2000A40EA0120C7E60000505C0040DC
:1023A000006000400050004010B50020FEF761FCC6
:1023B0000121BDE81040C805FEF7D4BC3649032012
:1023C000086070473548817A334809B1052100E03B
:1023D0000121016070473EB54FF4A060FEF722FA7C
:1023E0004FF480242046FEF76FFD082001948DF8FD
:1023F000090001248DF80A4001A8FEF707FD14200A
:102400008DF800008DF8014000258DF802508DF800
:1024100003406846FEF70BFA2A208DF800008DF87D
:1024200001506846FEF703FA3EBD1D490020C1F881
:10243000940170471A490120C1F894017047704710
:102440007047174900B10120C1F894017047154841
:1024500010B50168001D0368001D0268002915D031
:1024600011480C0A817004710C0C8471090E017200
:102470008372190A0173190C8173190E0174827425
:10248000110A0175110C8175110E017610BD002025
:1024900000F00CB870470000D8010020140A00209A
:1024A00000002342E8F7FF1FEC00002010B50100F8
:1024B0004FF0010002D1FEF728FD002010BD70B5DD
:1024C0000D46010014464FF0010005D11A46214681
:1024D000284600F0CFFE002070BD70B50C4601000C
:1024E00015461E464FF001000CD11A4629462046DB
:1024F00000F0C6FD28B90D48720829462044FEF7B1
:102500007EF8002070BD01004FF001000CD1084999
:102510004FF448400860091F4FF400600860091F2D
:102520004FF0C8600860002070470000006001089C
:102530005C00002010B5BC4A0C46BA49116010730B
:102540000D229821B848FFF7D5FB0D210120FFF798
:1025500098FDB6480521002C017007D004210170B8
:102560003021BDE810400120FFF731BC10BDB04A5A
:1025700010B51078AD4B40F010011170187802289A
:102580000AD04FF44054032815D0042801D0052860
:102590001BD10020187012E0A3482038C47B282CDF
:1025A00013D141F002011170D3E90112407BBDE863
:1025B000104000F0AABB01210020FFF7BBFF21461D
:1025C000BDE810400220FFF715BC10BD10B578B172
:1025D0004FF48054012805D002280FD1102101208A
:1025E000FFF7F5FB2146BDE810400220FFF702BCD3
:1025F0001021BDE810400120FFF7E9BB10BD70B508
:102600008A4B894C0020203C5988A4F1400202E00A
:10261000155C2554401C8842FAD3834862681F2900
:102620004260A268826007D00220FFF7CFFF00203F
:102630002060607B1A2221E0E17B282901D02A2931
:102640000AD1D4F81100227D00BA20F0FF00104317
:102650005860E08A40BA9860764A2068904251D12A
:10266000754A607B1268904203D8A27B0AB1102A97
:102670000CD90220FFF7AAFF607B2422052100F07D
:102680009EFABDE870400021012053E7252958D06B
:102690001ADC152971D00DDC08296ED005DCB9B320
:1026A000032936D004292DD163E00A2965D01229E7
:1026B00028D132E01A390A2924D2DFE801F0363273
:1026C000235E32232323233E8A2956D00EDC55294C
:1026D00053D006DC28293CD02A2940D02F2911D1FB
:1026E00043E05A2925D088290CD146E0A82944D0B6
:1026F00004DC8F2941D09E2904D13EE0AA293CD098
:10270000AF293AD00220FFF761FF607B2022B5E7B6
:102710001BE0BDE8704000F0BBBABDE8704000F0BF
:102720003DBABDE8704000F0BBBABDE8704000F0B3
:10273000A7BABDE8704000F0A7BABDE8704000F04D
:1027400042BABDE8704000F06BBABDE8704000F0DE
:1027500068BBD3E90112BDE8704000F0D6BAD3E9F6
:102760000112BDE8704000F000BBBDE8704000F011
:102770002BBBBDE8704000F06DBBBDE8704000F0C1
:102780007EBB2DE9F0412A4E274C3078203C40F0AA
:1027900010003070E57B0220FFF7BBFC234F0246A0
:1027A000D8217880A4F14000FFF7B6FA387818B144
:1027B000012804D0022005E0BDE8F0411FE72A2DE2
:1027C0000CD00120FFF702FF607B2422052100F0DE
:1027D000F6F9BDE8F04100210220ABE6307840F088
:1027E00001003070D7E90112607BBDE8F04100F0D4
:1027F000BCBA10B50C460A469821FFF77BFA214671
:102800000120FFF73EFC30210120FFF7E0FA0749E5
:102810000320087004488368191B8160002101733C
:1028200010BD000055534253900A0020E0000020E4
:10283000E10100205553424344010020FFF797BEB9
:10284000FFF79FBF70B50D4801680D4C21802188AE
:102850000C4D2A881140490505D54FF6FF3101601E
:10286000094840688047208829880840000403D52B
:10287000BDE87040FFF75CB970BD0000445C0040EB
:10288000400100204C0000205801002010B5FFF747
:10289000DEFD7B4800240068847200F005F9794869
:1028A000046079494FF4044008807649091F0860A4
:1028B0007648046010BD70B5754800257049857272
:1028C00074480968C07948722846FFF753FA4FF4F4
:1028D00000710020FFF766FA20210020FFF777FA49
:1028E00018210020FFF7A9FB6B4C002014F82C1FC7
:1028F000FFF7E5FB58210020FFF793FB0020FFF7CF
:10290000E4FA0020FFF7BCFA00210120FFF74AFAA1
:1029100098210120FFF785FB20210120FFF757FABE
:1029200000210120FFF766FA00210220FFF73AFAA2
:10293000D8210220FFF781FB21780220FFF7BFFB9F
:102940004FF440510220FFF755FA00210220FFF713
:102950003EFA21780020FFF7B2FB0020FFF790FA43
:102960000020FFF715F84949012008604C494B4801
:1029700008604C480570BDE87040FFF761BD4048F5
:1029800010B50068807A00280BD040490520086007
:102990000120FFF721FB0220FFF70DFB414900203A
:1029A000087010BD3E483D490068884202D00220B0
:1029B000FFF70CBE70473549042008607047704728
:1029C000704710B13448143870472D490120096808
:1029D0000882002070472A4900B509680A7802F089
:1029E0007F02212A08D1FE2806D1488820B988888C
:1029F00010B9C888012801D0022000BDAFF23D0007
:102A0000886100204882FFF7DCFF002000BD1C49E0
:102A100010B509680A7802F07F02212A07D1FF2841
:102A200005D1488818B9888808B9C88808B1022033
:102A300010BD0120FFF7D0FA0220FFF7BCFA1849B9
:102A40001648086017490020087010BD09B9002811
:102A500000D00220704710491039FEF7C0BD0E4962
:102A60000839FEF7BCBD06490968C978052901D9AE
:102A700000207047084A303202EBC101FEF7AFBDBB
:102A800040000020445C00404C000020D8010020A1
:102A9000140A0020243800085801002055534243EE
:102AA000700A0020E000002010B50120FFF7C9FCEB
:102AB0003748012101600021364A0160031D196079
:102AC0004FF4E05111800160002010BD10B5304C72
:102AD00001202060211D00200860FFF7B2FC0320C8
:102AE0002060002010BD2A48016889B241F0080129
:102AF0000160016889B241F004010160FFF75EBC2A
:102B000010B5234C206880B220F004002060FFF74D
:102B100059FC4FF40440206010BD70B51E4C0728CE
:102B200000D02070207806250426194906282CD2CA
:102B3000DFE800F00306090E1620FFF7E1FF24E0AE
:102B4000FFF7DEFF0AE0022060700320207070BDF6
:102B50006078401E607060780028F8D1267070BDE3
:102B6000086880B240F010000860052020700A203C
:102B7000607070BD6078401E607060780028F8D189
:102B8000086880B220F010000860257070BD000059
:102B9000405C00404C000020DC010020C3490A7C5E
:102BA000D20702D0C248052105E030B1C148C97C36
:102BB000242900D92421FFF71CBEBF48F7E7BF48EE
:102BC00081700273704710B50446FFF79CFC70B12A
:102BD000B6483A220221407BFFF7F1FF0121084667
:102BE000FFF7A8FCBDE810400020FFF7EFBCB44899
:102BF000B44950F82420100E0871100C4871100AC6
:102C00008871B148CA7150F82400020C4A72020A55
:102C10008A72C872BDE810400C21AA48FFF7E9BDCE
:102C200010B50446FFF76FFC70B1A0483A220221AC
:102C3000407BFFF7C4FF01210846FFF77BFCBDE89E
:102C400010400020FFF7C2BC9D48A04950F8242046
:102C5000521E100E0870100C4870100A88709A48A6
:102C6000CA7050F82400020E0A71020C4A71020A5E
:102C70008A71C871BDE8104008219448FFF7B9BDBA
:102C800004219348FFF7B5BD08219248FFF7B1BD75
:102C90008648C17C122900D912218848FFF7A9BDB6
:102CA00001210020FFF746BC70B5854C1A4454F84A
:102CB0002040A2420DD92A2902D10220FFF786FC2A
:102CC0000020FFF783FC7D4A0521212091701073BD
:102CD00011E07D4D754C55F82000A26858438242A2
:102CE00011D02A290DD00020FFF770FC607B242230
:102CF0000521FFF764FF00210120FFF71BFC0020E6
:102D000070BD0220F0E7012070BD2DE9F041724C4A
:102D10008046154620780E4630B1022823D1404621
:102D2000BDE8F04100F0DAB8604F13460A46787B00
:102D30002821FFF7B9FF002815D0387B00064FF097
:102D4000020003D520702A463146E8E7FFF73EFC33
:102D5000787B24220521FFF732FFBDE8F0410121F5
:102D60000846FFF7E7BBBDE8F08170B55A4C134643
:102D7000227832B1012A26D1BDE870401A4600F00F
:102D80000AB94A4D0A462A21687BFFF78DFF0028C1
:102D900019D0287B000608D401202070BDE87040BF
:102DA0004FF440510220FFF725B80020FFF70EFC3A
:102DB000687B24220521FFF702FFBDE87040002157
:102DC0000120FFF7B7BB70BD10B5384CA06828B91B
:102DD000207C400702D40121002009E00220FFF7F7
:102DE000F5FB607B24220521FFF7E9FE002101208D
:102DF000BDE81040FFF79EBB10B52C4CA06850B149
:102E00000220FFF7E3FB607B20220521FFF7D7FEBE
:102E10000021012001E001210020BDE81040FFF762
:102E200089BB10B5FFF76FFB70B120483A22022131
:102E3000407BFFF7C4FE01210846FFF77BFBBDE89E
:102E400010400020FFF7C2BB0121BDE81040002068
:102E5000FFF770BB10B5FFF756FB00280ED01348E4
:102E60003A220221407BFFF7AAFE01210846FFF724
:102E700061FBBDE810400020FFF7A8BB10BD10B5F6
:102E80000A4CA06810B1207B000601D5002000E0AC
:102E90000220FFF79BFB607B20220521FFF78FFEBE
:102EA0000021BDE810400120FFF744BB700A00205C
:102EB000600000208900002065000020B90000208B
:102EC0005C000020D300002058000020CB00002030
:102ED000AD000020B1000020E000002070B5614C82
:102EE0000546614E207810B1012808D044E056F81C
:102EF000250041435043C4E903100120207060685D
:102F000060B15A48E169402208449821FEF7F2FE78
:102F1000606840386060E069403018E036F82500AD
:102F2000524A83B22846E168FFF7D7FA10F0FF0F44
:102F300003D0607840F008006070402298214B4830
:102F4000FEF7D8FE56F82500403860604020E0616A
:102F500040210120FFF795F830210120FEF737FFCF
:102F6000E0684030E0602069403820614048816876
:102F700040398160FFF759FA206900280AD1606062
:102F8000E0613C4A0321E06011702070BDE87040B0
:102F9000FFF750BA70BD2DE9F041324CD4F808E08B
:102FA0002578314B00260EF1400E15B1012D08D0C9
:102FB00045E053F8205069435543C4E90515012104
:102FC00021702D4D294A26620AE0216AD4F808C0F2
:102FD0006F5C02F80C70491C2162A168491CA16059
:102FE000A1687145F1D3254F62692546398802EB06
:102FF000010CC4F814C0A269521AA26153F820103F
:10300000B2FBF1F301FB13226AB9AE608BB2ACEBF9
:103010000101164AFFF753FA10F0FF0F03D068784A
:1030200040F00400687012483A888168891A81600B
:103030004FF440510220FEF7DDFEFFF7F6F9A069DC
:1030400018B10C480078042809D1A660012100209D
:10305000FFF770FA2670BDE8F041FFF7EBB9BDE865
:10306000F0810000E001002058000020A00A0020AC
:10307000900A0020E0000020300A0020E20000203A
:1030800030B502004FF000034FF400600BD0B2F5F2
:10309000805F22D0B2F5584F1FD0B2F5604F4FF08D
:1030A000000246D12AE08D4C0022A55C521C01F89A
:1030B000015B3E2AF9DB4FF40074921C01E001F839
:1030C000013B1546521CA542F9DB01E001F8013B2A
:1030D0001446521C8442F9DB30BD804C0022241F70
:1030E000A55C521C01F8015B042AF9DB01E001F840
:1030F000013B1446521C8442F9DB30BD784CA55C80
:10310000521C01F8015B0B2AF9DB744C00223E349F
:10311000A55C521C01F8015B2F2AF9DB0B3201E0A0
:1031200001F8013B1446521C8442F9DB30BD01F822
:10313000013B1446521C8442F9DB30BD10B51446E5
:1031400002231A02403100E02031C87A202803D03F
:1031500018465B1C9042F7D3934208D8202261485E
:1031600000F05BFA5F480021C182018303E0202167
:103170005C4800F097FA204610BD2DE9FE4FDFF8BD
:1031800064B107460BF1160415468A46DBF81C802D
:10319000A4F10E00032254A1009000F0F3F9534E65
:1031A0004FF4007970B1032251A1009800F0EAF9C0
:1031B00018B303224FA1009800F0E4F901464FF440
:1031C000806015E04C480088DBF81C10C00281428A
:1031D00010D84A48C5F34F0251463844FDF728FA43
:1031E000206828442060404541DB0020206048469C
:1031F00030603CE04FF48040FAE7DFF80481B7F537
:10320000903F10D13C4800886FF0090101EB50005D
:10321000002487B205E008EBC420FDF7B0FE641C73
:10322000A4B2BC42F7D32E4F00243F1F1DE01AF872
:103230000410386800F06BF810B1022812D013E0C7
:103240006946386800F081F970B1009941450BD3A7
:10325000FDF75BFE9DF808004208DDE90001FDF77F
:10326000BBF901E0C6F80090641CAC42DFD32846ED
:10327000BDE8FE8F10B568B1B0F5805F0AD0B0F53B
:10328000584F07D0B0F5604F07D0B0F5903F01D34D
:10329000FFF773FF4FF4006010BDFFF74FFF00F022
:1032A00031F80F49091F0860F4E710B5044600F033
:1032B00095F9C2B200200A4905E0235C0B54401C7A
:1032C000C0B2082808D29042F7D32022082803D29F
:1032D0000A54401CC0B2F9E710BD0000983800083D
:1032E00008020020A012002042494E0000000020E9
:1032F0004845580053454300E0F7FF1F0030FF07E3
:10330000005000089D487047D62100F0CBB92DE948
:10331000F04104004FF001050DD094F8653004220F
:1033200002269748092B2ED2DFE803F008103D5CF7
:1033300080BF2D2DF600FF20BDE8F0813A2922D173
:10334000012084F8650084F86A10ABE094F86430DA
:10335000C3F10203E15494F86410491E11F0FF0117
:1033600084F86410EBD161782378095C185C41EA39
:10337000001010F0FF0084F86B0005D0322870D8E0
:1033800004F8642F6670DEE0302020706070A0705A
:10339000E0702071312060714620A071E07108203A
:1033A00084F865003FE094F86420C2F10402A1545F
:1033B00094F86410491E11F0FF0184F8641034D1B0
:1033C00061782278095C125C41EA021184F86C1081
:1033D000E178A278095C105C41EA001084F86D0085
:1033E00003205DE094F86430C3F10203E15494F8E3
:1033F0006410491E11F0FF0184F8641015D1617842
:103400002378095C185C41EA001010F0FF0084F892
:10341000700003D0042801D0052822D184F865204B
:1034200094F86B00400084F864008CE094F8642009
:1034300094F86B30C2EB4302A15494F86410491E17
:1034400011F0FF0184F864107DD194F86B202746B9
:103450005206130E002204F171015FEAC37C14D1FD
:1034600010E06CE007EB420C17F812E09CF801C08A
:103470001EF800E01CF800C04CEA0E1C01F802C067
:10348000521CD2B2B2EB530FECD394F87000042864
:1034900005D194F86B2004F1660000F0BEF8052019
:1034A00084F8650084F864604DE094F86420C2F10B
:1034B0000202A15494F86410491E11F0FF0184F82F
:1034C000641040D161782278095C105C41EA0010F8
:1034D000C3B284F8D53094F86B2094F86C0094F85B
:1034E0006D101044084494F870100844C1B20020D4
:1034F00006E02518401C95F87150C0B22944C9B2A5
:103500008242F6D8581810F0FF0F18D1002084F826
:103510006500054617E0FFE794F86400C0F1080273
:10352000D2B2A25C8A420AD1401E10F0FF0084F899
:10353000640008D12046FFF7E7FE022503E020469D
:10354000FFF7E2FEFF252846F6E690F870200AB164
:103550000020704790F86D300B7090F86C304B7015
:1035600090F867308B7090F86630CB7000F1710284
:103570004A6090F86B00087270470000C01200208B
:10358000D538000840EA010310B59B070FD1042A83
:103590000DD310C808C9121F9C42F8D020BA19BA1E
:1035A000884201D9012010BD4FF0FF3010BD1AB183
:1035B000D30703D0521C07E0002010BD10F8013BD8
:1035C00011F8014B1B1B07D110F8013B11F8014BFF
:1035D0001B1B01D1921EF1D1184610BD10B5431C22
:1035E00002E010F8011B71B18107FAD14FF00132EE
:1035F00002C88C1A8C4314EAC211F9D0C01A0A0608
:1036000003D0C01E10BDC01A10BD0A0401D0801E18
:1036100010BD0902FCD0401E10BD032A40F23080CC
:1036200010F0030C00F0158011F8013BBCF1020F03
:10363000624498BF11F801CB00F8013B38BF11F884
:10364000013BA2F1040298BF00F801CB38BF00F89B
:10365000013B11F0030300F04A80083AC0F00880F3
:1036600051F8043B083A51F804CBA0E80810F5E7FC
:10367000121D5CBF51F8043B40F8043BAFF30080DF
:10368000D20724BF11F8013B11F801CB48BF11F854
:10369000012B24BF00F8013B00F801CB48BF00F824
:1036A000012B70474FF000020429C0F0128010F087
:1036B000030C00F05080CCF1040CBCF1020F18BFD9
:1036C00000F8012BA8BF20F8022BA1EB0C0100F0A1
:1036D00042B85FEAC17C24BF00F8012B00F8012B3F
:1036E00048BF00F8012B704770477047704710B50E
:1036F000203AC0F00B80B1E81850203AA0E81850EA
:10370000B1E81850A0E81850BFF4F5AF5FEA027CAA
:1037100024BFB1E81850A0E8185044BF18C918C019
:10372000BDE810405FEA827C24BF51F8043B40F8BA
:10373000043B08BF7047D20728BF31F8023B48BF9F
:1037400011F8012B28BF20F8023B48BF00F8012BDD
:1037500070474FF0000200B5134694469646203954
:1037600022BFA0E80C50A0E80C50B1F12001BFF43A
:10377000F7AF090728BFA0E80C5048BF0CC05DF8A0
:1037800004EB890028BF40F8042B08BF704748BFEE
:1037900020F8022B11F0804F18BF00F8012B704762
:1037A000754600F02BF8AE4605006946534620F0FA
:1037B0000700854618B020B5FDF722F8BDE8204087
:1037C0004FF000064FF000074FF000084FF0000BDD
:1037D00021F00701AC46ACE8C009ACE8C009ACE890
:1037E000C009ACE8C0098D46704710B50446AFF378
:1037F00000802046BDE81040FCF701BD004870473E
:103800009813002001491820ABBEFEE726000200F5
:103810007047120100020000004084042257000299
:103820000102030109022000010100C0FA0904009D
:103830000002080650040705810240000007050247
:103840000240000004030904160349006F005400FD
:103850002D00530074007500640069006F0026039A
:103860007500460075006E00200042006F006F007A
:1038700074006C006F00610064006500720000005D
:103880000000000010035300540020004D006100B0
:1038900073007300F8FFFFFFEB3C904D53444F5310
:1038A000352E3000080402000200020000F80D006E
:1038B0003F00FF000000000000C80000800029BD9C
:1038C000A5DD024E4F204E414D452020202046418F
:1038D00054313620202020004B9C429238923800F0
:1038E000009D4292380000000000005546554E20D1
:1038F0002020202020200800000000000000000000
:10390000009D429238000102030405060708093AA7
:103910003B3C3D3E3F400A0B0C0D0E0F3C3900086E
:1039200000000020140200006C010008243A000886
:1039300014020020E4170000C8010008415A0A04DC
:103940001184A24A04400901020304060708096D14
:103950000204060814A918012A35800202201E75E7
:1039600046756E2001280B426F6F746C6F61646541
:10397000720E6F2020312E3020243C53544D1438C9
:10398000104E414E4420466C617368204469736B4D
:103990002442036206627039B8011139AF02100285
:1039A000141A03531254124D123312321A2002C148
:1039B000133D280C18084D1A040A154120811312D2
:1039C000383308121A2408295A1A8D301AB70413EA
:1039D000BF291B08C1041AD7041B0F2A3419041A63
:1039E00057041A5F041A67044132401A44383204FB
:1039F0001A480832161A5E08322622EC33201A1AA8
:103A00008410321023030129781A7F50A9889AA5BF
:103A1000101AB70C0130100C524541445920202097
:043A200054585400A2
:0400000508000131BD
:00000001FF
